:1040000000800020C163000057620000576200007A
:1040100000000000000000000000000000000000A0
:1040200000000000000000000000000057620000D7
:104030000000000000000000576200004562000020
:10404000576200005762000057620000576200008C
:10405000576200005762000057620000596200007A
:1040600057620000556C0000576200005762000064
:104070005762000057620000656C00005762000044
:10408000576200005762000057620000576200004C
:10409000576200005762000057620000576200003C
:1040A000576200005762000057620000576200002C
:1040B00010B5064C2378002B07D1054B002B02D0FE
:1040C000044800E000BF0123237010BD3001002030
:1040D0000000000014FE000008B5084B002B03D0C0
:1040E0000748084900E000BF07480368002B03D0D9
:1040F000064B002B00D0984708BDC04600000000CA
:1041000014FE0000340100202C01002000000000FB
:10411000084B1A68002A01D1074A1A601A68074931
:104120001018884202DC1860101C01E00120404297
:104130007047C0464C0100200C0E0020FF7F00207D
:1041400001204042704780239B0100204B60704754
:10415000012070470020704700207047031C00209A
:10416000012B03D1131A06D40130FBE7024B0922BD
:1041700001201A6040427047080E0020011C08B55B
:10418000014806F0BDFFFEE700F100007047012086
:104190004042704738B5064B041C03608068002815
:1041A00004D0056806F0DCFE281CF8E7201C38BDAA
:1041B00028F1000038B5041C0D1C002C07D06068E5
:1041C000291C07F04FF8002801D02468F5E7201CCF
:1041D00038BDF7B58468061C0D1C002C04D0A068FF
:1041E00062680B18934215D9F7680195BD4200D259
:1041F000019701980C3006F0A9FE002811D0019B10
:104200000335436003237F009D430460B060F76083
:10421000856005E0033503239D432D18A560201814
:104220000C30FEBD08B502F088FE43425841C0B2D2
:1042300008BD10B5041C006802F065FA6368181820
:10424000606010BDF0B587B000226B46071C0C1CE7
:104250005A7505AD201C0A2103F0D6FF30312970B4
:10426000201C0A2103F08CFF2E1C041C013D002899
:10427000F0D1381C311CFFF7DCFF07B0F0BD10B5E2
:10428000041C006803681B6898476368181860601E
:1042900010BD000070B50D1C041C2221002D09D199
:1042A0001049FFF7C6FF1BE0201C5C21FFF7E7FF6A
:1042B000201C311CFFF7E3FF2978002909D00A4BA5
:1042C00001351E78002E09D05A788A42ECD002338C
:1042D000F7E7201C2221FFF7D2FF01E0201CE9E7CD
:1042E00070BDC0463FF1000030F10000000000004A
:1042F00008B503280AD803F039FF02160507FE2087
:10430000800511E00C480FE00C480DE00438C0B205
:10431000FFF7EEFF06F0CCFC064B054A05F068FE01
:1043200006F018FD00E0064808BDC046C046C0467D
:104330002D431CEBE2361A3F0AD7233C6F12833A17
:10434000CDCCCC3DC046C046F7B5041C081C0F1CA4
:10435000161C03F0EDFE002802D1201C504913E08A
:10436000381C002104F00CF8002806D0201C2D2158
:10437000FFF785FF80231B06FF18381C03F0D8FECB
:10438000012804D14749201CFFF753FF81E0381C66
:10439000454904F009F8002808D1381C06F088FCCB
:1043A0003E4B3D4A03F0B2FF051E23D00025381CCA
:1043B000002103F0DFFF00280ED1FE21381C890503
:1043C00003F0DEFF002807D0381C384904F080FBDA
:1043D000013DADB2071CEAE7381C344903F0E4FFA5
:1043E000002807D0381C314904F08EF90135ADB2F0
:1043F000071CF1E7301CFFF77BFFFC21890504F067
:1044000067FB011C381C04F01BF8071C03F0E0FFDD
:10441000019004F017FE011C381C04F083FC019984
:10442000071C201CFFF70EFF002E03D0201C2E219E
:10443000FFF725FF002E18D01C49381C04F048FB5C
:10444000071C03F0C5FFC0B2019004F0FBFD011C86
:10445000381C04F067FC0199071C3031C9B2201CDC
:10446000013EFFF70CFFF6B2E4E72EB2002E06DAAB
:10447000201C0F49FFF7DDFE7142201C07E0002DD4
:1044800007D0201C6521FFF7FAFE201C311CFFF726
:10449000D9FEF7BDC046C046FCA9F1D24D62503FDF
:1044A00044F1000048F1000000007A44000020417F
:1044B00051F10000C046C046021C08B5081E03D0DA
:1044C0000B68111C1B68984708BD000070B5094DAA
:1044D00001262B68084C1E4009D1281C03F029FD39
:1044E000002804D026606660281C03F031FD201CE3
:1044F00070BDC046580100205001002038B5051C91
:1045000000780C1C07283CD803F030FE41262131EE
:104510002C28041D6D68081C5B21FFF7B0FE6D6838
:10452000002D06D0281D211CFFF7E8FF2D68002D67
:1045300004D1201C5D21FFF7A2FE28E0201C2C21C5
:10454000FFF79DFEEEE7686800F026F81FE0696857
:10455000201CFFF79FFE1AE069680EE0081C2D2161
:10456000FFF78DFE6968201CFFF76CFE0FE06B689B
:10457000002B01D0064900E00649201CFFF759FE38
:1045800005E00838C2B26968201CFFF7DDFE38BDBF
:1045900054F1000059F1000038B5051C0C1C081C32
:1045A0007B21FFF76CFE6D68002D0FD06968201C21
:1045B000FFF770FE201C3A21FFF761FE281C08302F
:1045C000211CFFF79BFF2D68002D04D1201C7D21AD
:1045D000FFF755FE38BD201C2C21FFF750FEE5E704
:1045E00010B5041C211C0820FFF766FF002803D02B
:1045F00000230460436001E0FFF768FF10BD000086
:1046000070B5254E86B00C1C311C051C02F079FBE0
:10461000201C2F2102F0CFFC013031D01F4E684604
:10462000311C02F06EFB6946201C02F0D9FC00220E
:10463000031C211C03A802F0D9FC03A9281C02F0CA
:1046400087FB03A802F016FB684602F013FB311C3F
:10465000684602F056FB6946201C02F0C1FCA368C4
:10466000421C211C03A802F0C1FC03A9201C02F07B
:104670006FFB03A802F0FEFA684602F0FBFA07E0BF
:10468000211C281C02F064FB201C311C02F07AFB68
:10469000281C06B070BDC0463EF100005FF100006E
:1046A00008B5011C014802F03BF808BD6406002073
:1046B000F0B542699FB00390D6491BA8019202F061
:1046C00020FB0A22019918A802F08CFB18A91BA84C
:1046D00002F012FCD04902F01DFC011C06A802F0F9
:1046E00047FB18A802F0C6FA1BA802F0C3FACB4C8D
:1046F00080229200002306A8211C02F033FC211C1A
:104700001BA802F0FEFA1BA8FFF7CAFF1BA802F0C5
:10471000B1FAC34909A802F0F4FA09A802F0B6FCFC
:10472000039B0290A833186002990A221BA802F08A
:1047300059FB1BA8FFF7B4FF1BA802F09BFA012648
:10474000029A964200DD5BE1B24918A802F0D9FA5C
:104750000A22019915A802F045FB15A918A802F034
:10476000CBFBB04D291C02F0D5FB0A22041C311CE6
:104770001BA802F037FB201C1BA902F0BDFBAA49B5
:1047800002F0C8FB011C06A802F0E2FA1BA802F026
:1047900071FA15A802F06EFA18A802F06BFA9F4C95
:1047A000802200239200211C06A802F0DBFB211CC2
:1047B0001BA802F0A6FA1BA8FFF772FF1BA802F0C5
:1047C00059FA97490CA802F09CFA0CA802F05EFC7A
:1047D00004900A2204991BA802F028FB1BA8FFF7EB
:1047E0005FFF1BA802F046FA8A4918A802F089FA6E
:1047F0000A22019915A802F0F5FA15A918A802F0E5
:104800007BFB291C02F086FB0A22071C311C1BA81B
:1048100002F0E8FA381C1BA902F06EFB834902F093
:1048200079FB011C06A802F093FA1BA802F022FAF9
:1048300015A802F01FFA18A802F01CFA8022002323
:104840009200211C06A802F08DFB211C1BA802F07F
:1048500058FA1BA8FFF724FF1BA802F00BFA7049B7
:104860000FA802F04EFA0FA802F017FC05900222E2
:1048700005991BA802F0ECFA1BA8FFF711FF1BA873
:1048800002F0F8F9634918A802F03BFA0A220199EC
:1048900015A802F0A7FA15A918A802F02DFB291CEB
:1048A00002F038FB0A22071C311C1BA802F09AFAFE
:1048B000381C1BA902F020FB5D4902F02BFB011CF8
:1048C00006A802F045FA1BA802F0D4F915A802F0D8
:1048D000D1F918A802F0CEF9802200239200211C01
:1048E00006A802F03FFB211C1BA802F00AFA1BA835
:1048F000FFF7D6FE1BA802F0BDF9494912A802F045
:1049000000FA12A802F0C9FB071C0222391C1BA8DE
:1049100002F09EFA1BA8FFF7C3FE1BA802F0AAF93B
:104920003C4918A802F0EDF90A22019915A802F0F5
:1049300059FA15A918A802F0DFFA291C02F0EAFAC0
:104940000A22051C311C1BA802F04CFA281C1BA9CA
:1049500002F0D2FA374902F0DDFA011C06A802F093
:10496000F7F91BA802F086F915A802F083F918A838
:1049700002F080F9802200239200211C06A802F098
:10498000F1FA211C1BA802F0BCF91BA8FFF788FE56
:104990001BA802F06FF9224918A802F0B2F918A872
:1049A00002F07BFB051C0222291C1BA8182402F024
:1049B0004FFA74431BA8FFF773FE1BA802F05AF9C5
:1049C000039B04991C19201C01F0ABF9201C0599CC
:1049D00001F0ABF9201C391C01F0ABF9291C201C9B
:1049E00001F0ABF918A802F045F912A802F042F95B
:1049F0000FA802F03FF90CA802F03CF901369FE63F
:104A000009A802F037F906A802F034F900201FB017
:104A1000F0BDC0462FF2000061F100001404002038
:104A2000F002002074F1000078F1000082F1000033
:104A300089F100008EF10000F0B593B0061CE74943
:104A40000FA802F02FFA0FA8FFF72AFE0FA802F016
:104A500011F9311C0FA802F08BF90FA8FFF720FE07
:104A60000FA802F007F9301C02F0E6FA03A8311C87
:104A7000FFF7C6FD03A8DA4902F05FFA002818D054
:104A8000D8490FA802F03DF90FA8FFF709FE0FA8BB
:104A900002F0F0F8D44C201CFFF70AFE002803D1E6
:104AA000201C01F0C5F821E30FA8D04902F0FAF963
:104AB00016E3CF4C03A8211C02F03FFA271C002864
:104AC0000FD0CC490FA802F01CF90FA8FFF7E8FDA2
:104AD0000FA802F0CFF8C44C201C01F0F8F9201CFC
:104AE00034E203A8C44902F028FA002801D0BE4AE3
:104AF00007E003A8C14902F020FA002800D1F5E23E
:104B0000BF4AC04B0FA8311C1A60FFF779FD0FA9EF
:104B100003A802F01DF90FA802F0ACF803A8BA49E7
:104B200002F00BFA051E6BD0B84C301C211CFFF7AD
:104B300079FB002800D1D9E20FA8311CFFF760FDF6
:104B40000FA903A802F004F90FA802F093F8B049E6
:104B500003A802F0F2F9211C45424541301CFFF741
:104B600061FB0024EDB2A0420ED00FA8311CFFF76C
:104B700047FD0FA903A802F0EBF80FA802F07AF89E
:104B800003A802F083FA041C9E4E306801F0B4F9C9
:104B9000A049019009A802F0B4F80A22291C06A82D
:104BA00002F00FF906A909A802F0A6F99A4902F045
:104BB000B1F90A22071C211C0CA802F037F90CA934
:104BC000381C02F099F9011C0FA802F0D1F80FA8C7
:104BD000FFF766FD0FA802F04DF80CA802F04AF8A6
:104BE00006A802F047F809A802F044F8019B072242
:104BF0001A4094403068221C291C01F0FFF875E22D
:104C000003A8864902F099F9041E53D0301C7F494D
:104C1000FFF708FB0024002817D00FA8311CFFF76E
:104C2000EFFC0FA903A802F093F80FA802F022F8F6
:104C300003A802F032FA0021041C03F0A1FB0028B3
:104C400003D080231B06E41800E0012509A874495D
:104C500002F057F80A22291C06A802F0B2F806A9A9
:104C600009A802F049F96F4902F054F90222061C22
:104C7000211C0CA802F0ECF80CA9301C02F03CF945
:104C8000011C0FA802F074F80FA8FFF709FD0FA888
:104C900001F0F0FF0CA801F0EDFF06A801F0EAFF1B
:104CA00009A801F0E7FF574B291C1868221C01F0E6
:104CB00081F81BE203A85C4902F03FF900284ED0BE
:104CC000301C5249FFF7AEFA00280ED00FA8311C55
:104CD000FFF796FC0FA903A802F03AF80FA801F01D
:104CE000C9FF03A802F0D2F9041C464EE51730684C
:104CF00001F054F8C30F84425D414C4909A802F009
:104D000000F80A22211C06A802F07EF806A909A8CC
:104D100002F0F2F8464902F0FDF8EDB20A22071C53
:104D2000291C0CA802F04DF80CA9381C02F0E4F87C
:104D3000011C0FA802F01CF80FA8FFF7B1FC0FA888
:104D400001F098FF0CA801F095FF06A801F092FF72
:104D500009A801F08FFF3068291C221C65E103A817
:104D6000344902F0EAF800286AD0301C2749FFF7DE
:104D700059FA002800D1B9E1311C06A8FFF740FC20
:104D800006A802F08AF92C49051C0CA801F0B9FF0D
:104D90001C4C0A22236809A8596902F023F809A9C2
:104DA0000CA802F0A9F8254902F0B4F806A902F00F
:104DB000A3F8011C0FA801F0DBFF0FA8FFF770FCA0
:104DC0000FA801F057FF09A801F054FF0CA801F04B
:104DD00051FF2068291C01F0A0F86FE093F100005A
:104DE0009FF10000A5F1000060010020ACF100007F
:104DF00041F30000BEF20000D9F30000F4F300001C
:104E00002802002004000020CEF100003EF1000046
:104E1000D3F10000D7F10000E1F10000EBF1000058
:104E2000EFF10000F8F1000002F2000005F20000CE
:104E300012F200008AF100001AF200005BF200009A
:104E400003A8AD4902F079F8002839D0301CAB49ED
:104E5000FFF7E8F9002800D148E1311C06A8FFF768
:104E6000CFFB06A802F019F9A549051C0CA801F012
:104E700048FFA44C0A22236809A8596901F0B2FF2F
:104E800009A90CA802F038F89F4902F043F806A9D6
:104E900002F032F8011C0FA801F06AFF0FA8FFF71B
:104EA000FFFB0FA801F0E6FE09A801F0E3FE0CA845
:104EB00001F0E0FE2068291C01F039F806A813E192
:104EC00003A8924902F039F800282AD0301C8B49F7
:104ED000FFF7A8F9002800D108E1311C09A8FFF765
:104EE0008FFB09A802F0D9F88949041C0CA801F02D
:104EF00008FF09A90CA801F0FFFF011C0FA801F091
:104F000037FF0FA8FFF7CCFB0FA801F0B3FE0CA8EA
:104F100001F0B0FE7B4B211C186800F0F4FF09A8DB
:104F2000E2E003A8391C02F008F8002811D0794902
:104F30000FA801F0E6FE0FA8FFF7B2FB0FA801F0E3
:104F400099FE704C206800F0DFFE206800F020FD24
:104F5000CCE003A8704901F0F0FF00280ED06F49A3
:104F60000FA801F0CEFE0FA8FFF79AFB0FA801F0E3
:104F700081FE644B186800F0A0FFB7E003A8684901
:104F800001F0DBFF00280ED066490FA801F0B9FE42
:104F90000FA8FFF785FB0FA801F06CFE594B1868AE
:104FA00000F086FFA2E003A85F4901F0C6FF0028D9
:104FB0000ED05E490FA801F0A4FE0FA8FFF770FB0A
:104FC0000FA801F057FE4F4B186800F04DFE8DE022
:104FD00003A8574901F0B1FF041E0ED055490FA890
:104FE00001F08FFE0FA8FFF75BFB0FA801F042FE58
:104FF000444B186800F060FE78E003A84E4901F0C9
:105000009CFF002814D04D490FA801F07AFE0FA88C
:10501000FFF746FB0FA801F02DFE3A4B1D68281C38
:1050200000F047FE211C021C281C00F023FF5DE05D
:1050300003A8434901F081FF051E12D041490FA882
:1050400001F05FFE0FA8FFF72BFB0FA801F012FE87
:105050002C4B1C68201C00F054FE0121021C201C5B
:10506000E3E703A8384901F068FF041E0FD0374971
:105070000FA801F046FE0FA8FFF712FB0FA801F0E2
:10508000F9FD204B291C186800F004FE2EE003A84F
:105090002F4901F052FF00280FD02E490FA801F030
:1050A00030FE0FA8FFF7FCFA0FA801F0E3FD154B47
:1050B000211C186800F016FE18E003A8264901F02C
:1050C0003CFF002802D00FA8244907E003A8244988
:1050D00001F033FF002809D022490FA801F011FE8A
:1050E0000FA8FFF7DDFA0FA801F0C4FD03A801F037
:1050F000C1FD13B0F0BDC0468FF100003EF10000CD
:1051000034F20000040000205BF2000083F1000094
:105110004EF20000BEF2000060F2000068F20000F3
:1051200072F2000079F2000082F2000094F20000B6
:10513000A5F20000B5F20000C4F20000D4F20000B5
:10514000E8F20000F6F2000008F300001CF3000093
:1051500034F3000046F300005CF3000068F3000045
:1051600076F3000081F3000010B5041C21681020C4
:10517000FFF7A2F9002802D00023036003726368DE
:10518000002B06D01A68002A01D0131CFAE7186019
:1051900000E0606010BDF7B5051C00680F1C00281A
:1051A00002D1FFF793F917E0FFF71AFA0668041C1B
:1051B000002E01D0019007266868391CFEF7FAFF1F
:1051C000002805D1281CFFF7CFFF002803D0476037
:1051D000019B0672C360201CFEBDF8B546680768D7
:1051E000041C0D1C7868311CFEF7E4FF002805D173
:1051F000381CFFF7B9FF002808D04660002D01DBFE
:10520000042301E06D4205230372C560201CF8BD34
:1052100037B51A4B1A4C1B4A2360802300255B00CC
:105220001949201CE360A56002F095FE201CFFF7E1
:10523000D7F9164C16492060FFF7ADFF154B1649FC
:1052400018602068FFF7A7FF144B15491860206805
:10525000FFF7A1FF134B291C1860032300930222C0
:105260000423114800F070FB07230093291C062239
:1052700008230E4800F068FB37BDC04628F1000047
:10528000F403002000000020954100005C01002094
:105290008EF300000804002094F300000C040020AA
:1052A0009AF30000F0030020600100202802002093
:1052B000F0B5684CFA2185B0201CC90000F0E4FA72
:1052C000654FE1225202391C201C00F0C6FA201C56
:1052D00000F0BEFA6149606B01F015FA0A2000F097
:1052E000A1FF0122201C002100F01AFB1520012142
:1052F00001F000F91220002101F0FCF80220012148
:1053000001F0F8F80420012101F0F4F80320002155
:1053100001F0F0F80620012101F0ECF8082001214D
:1053200001F0E8F80720002101F0E4F80220012153
:1053300001F07EF90620012101F07AF90420002114
:1053400001F076F90420012101F072F90820002112
:1053500001F06EF90121082001F06AF9404E301C7D
:1053600000F076F9301C012100F00CFA3D4D311CA3
:10537000281C00F0F7FC3C4C311C201C00F0F2FC17
:1053800001236B61281C062100F0A6FD281C1421B6
:1053900000F0D7FD281C142100F0D9FD334E281C45
:1053A000142100F0DAFD281C002100F0DCFD281C8F
:1053B000321C0D2100F0D8FC281C0E21252200F003
:1053C000D3FC281C0F212A2200F0CEFC2A22281C04
:1053D000102100F0C9FC02236361201C062100F0AB
:1053E0007BFD201C142100F0ACFD201C142100F0DA
:1053F000AEFD201C142100F0B0FD201C002100F0A7
:10540000B2FD201C321C0D2100F0AEFC201C0E2130
:10541000252200F0A9FC201C0F212A2200F0A4FC68
:105420002A22201C102100F09FFC381C104901F09A
:1054300043FFE1210F48490201F006FC0E4901A893
:1054400001F05FFC01A8FFF72BF901A801F012FCA5
:1054500005B0F0BD2406002050080020A0F3000095
:10546000140600206001002028020020069200009F
:10547000801A060064060020B2F30000F0B587B081
:1054800000F0CAFE002803D100F0C6FE01282FD983
:1054900000F0C2FE5D4B18605D4B1A68904200D26E
:1054A00018601968421AF92A22D95A4C1860201C2F
:1054B00000F0CEF95849606B01F025F95749606B4F
:1054C00001F021F9656B00F0A7FE0A22011C281CDF
:1054D00001F057F95249606B01F015F9022000F014
:1054E000A1FE0A2000F09EFE201C012100F0EEF932
:1054F0004C4E4D4D32684D4C281C0392049400F0E4
:105500004DFC011C03A8FFF768FE3368484F281CB8
:105510000393049700F0CDFB011C03A8FFF75DFE89
:1055200036684449281C0396049100F0EAFB011CEC
:1055300003A8FFF752FE404E404D3268281C0392EC
:10554000049400F02BFC011C03A8FFF746FE33680F
:10555000281C0393049700F0ACFB011C03A8FFF781
:105560003CFE34493668281C0491039600F0C9FBC0
:10557000011C03A8FFF731FE314B211C1D68686830
:10558000FEF718FE002805D1281CFFF7EDFD0028C6
:1055900004D04460052303727B23C360294B2A4C4B
:1055A000186803A9002303940493FEF7F5FF6846E7
:1055B000264901F0A6FB201C01F006FE00280ED0B3
:1055C000201C01F0C7FDC1B203A801F0ECFB684646
:1055D00003A901F08AFC03A801F04CFBEBE7029A57
:1055E000002A09D0694603A801F0C2FB03A8FFF70F
:1055F00023FA03A801F03EFB9620400000F012FEC3
:10560000684601F037FB07B0F0BDC046100400202B
:105610000404002024060020D3F30000DBF3000084
:10562000DDF300000804002060010020E6F3000024
:10563000EAF30000F0F300000C0400202802002030
:10564000F00300205C010020500800203EF1000023
:1056500073B5041C18260079331C4343124D0821EE
:10566000EB18595600F082FFA079331C4343082100
:10567000EB18595600F07AFF607908214643AD19BE
:105680006956002500F072FF2B1C2A1C009520682B
:10569000012101F0FBF9291C2068044A01F0F2F80D
:1056A000206801F015F973BDF0F4000000093D0019
:1056B00008B5006801F0FEF808BD0000F0B5131C45
:1056C00087B01B0A0592041C0491D2B2DBB2EFF33F
:1056D00010800021884204D1EFF3138148424141F8
:1056E000C9B2217372B601210391002A06D0013A92
:1056F000511E8A415242012111400391022B08D0D0
:105700000125002B08D0032B05D0AB4204D1032583
:1057100002E0002500E00225201CFFF7C9FF182742
:1057200020793B1C4343144E0821F318595600F0CE
:105730001DFFA0793B1C43430821F318595600F084
:1057400015FF607908214743F619715600F00EFFE6
:10575000039B002200932068131C012101F096F99D
:105760002068291C049A01F08DF8206801F0B0F837
:105770000123637307B0F0BDF0F40000002343730E
:1057800062B6704708B5031C032912D8081C1B68B1
:1057900002F0ECFC050B0208181C002107E0181CA5
:1057A000012104E0181C022101E0181C032101F072
:1057B000A3F808BDF0B5051C85B00E1C171E22D03D
:1057C0000978006801F0B6F8731EDB19341C0393E6
:1057D000039A94420DD062782868019201F0BDF8D6
:1057E00001990290286801F0A5F8029B237001340A
:1057F000EEE7013FF619054B1B7E9A07FBD528689B
:1058000001F0ABF8307005B0F0BDC04600180042A2
:10581000044B054A1A6012221A7114229A71152239
:105820005A717047140600203407002010B5041C7C
:10583000002903D000F0F0FC606010BD00F0ECFC2B
:105840006368C01A2028F5D8032000F0EBFCF5E7C8
:1058500008B50021FFF7EAFF08BDF8B5051C0E1CCE
:10586000171C69631B24301C01F028FD002806D199
:10587000013C002C03D0642000F0D4FCF3E7686BFB
:10588000391C01F019FDF8BD002208B582634260A1
:10589000914202D0081C00F0C5FC08BD38B5041CBC
:1058A0000D1C406B074900F02EFF291C0A22606B7B
:1058B00000F073FF0449606B00F025FF322000F018
:1058C000B1FC38BDF6F30000FDF3000070B5037ABB
:1058D000041C0E1C002B01D1632020E0606B0368C8
:1058E0009B6898470028F9D0606B03689B689847CD
:1058F0000028F1DD606B0368DB689847C5B2632D53
:1059000008D0762D04D0582DEED100232372EBE77A
:10591000C0B204E0201C311CFFF7C0FFDCE770BD03
:1059200038B5041C151C002904D001230372002182
:10593000FFF7CCFF257238BD08B5011C014800F007
:10594000EFFE08BD64060020F7B5041C0898261C6D
:105950000090201C00F0F6F91836271C351CA837DB
:10596000281C183500F0D4F9BD42F9D1221C0023BF
:10597000AC322B60136056601372D36013611375E1
:10598000231C024AC433201C1A60FEBD00001644CA
:105990001FB5031CC433041C196800F0B4FA221CA0
:1059A0000023AC32B43413600549237001A801F020
:1059B000A8F901A8FFF7C0FF01A801F05BF91FBD1E
:1059C0004EF4000038B5101C0D1C00F0ACF9041C9E
:1059D000281C00F0A8F9201AC043C00F38BD0000F1
:1059E000F0B5061CAC3633681821013333604B43E5
:1059F000051CB035C31899B02B60041C00F07CFA6C
:105A0000071C201C00F0CAF907231F400597059AC0
:105A1000071C2868174100F086F90190286800F0FB
:105A200086F90290286800F086F90390286800F053
:105A300086F90199FA0FCB17B9425A41049003999C
:105A4000201CD7B200F069FA201C049900F06FFA0C
:105A5000231CA8331B6832689A4244DA6B4915A8A4
:105A600001F04FF915A8FFF767FF15A801F002F93B
:105A70003268182301325A432968A218201CFFF704
:105A8000A1FF874207D1201C391C029A00F092F92D
:105A900012A85F490BE0201C029900F034FA01992A
:105AA000059A201C914000F0C7F95A4912A801F04C
:105AB00028F90A2201990FA801F0A6F90FA912A846
:105AC00001F01AFA011C15A801F052F915A8FFF708
:105AD00033FF15A801F0CEF80FA801F0CBF812A8FB
:105AE00001F0C8F843E0201C029900F00CFA059B75
:105AF0000199201C994000F09FF9474915A801F031
:105B000000F915A8FFF718FF15A801F0B3F84149EF
:105B10000FA801F0F6F80A2201990CA801F074F917
:105B20000CA90FA801F0E8F93C4901F0F3F90222B1
:105B3000051C029912A801F08BF912A9281C01F08A
:105B4000DBF9011C15A801F013F915A8FFF7F4FE05
:105B500015A801F08FF812A801F08CF80CA801F03C
:105B600089F80FA801F086F8B4340323237009A83C
:105B70002B4901F0C6F80222029906A801F068F943
:105B800006A909A801F0B8F9264901F0C3F90222D3
:105B9000041C03990CA801F05BF90CA9201C01F06E
:105BA000ABF9214901F0B6F90222041C04990FA8AF
:105BB00001F04EF90FA9201C01F09EF91B4901F0DC
:105BC000A9F90A22041C391C12A801F0FAF812A93A
:105BD000201C01F091F9011C15A801F0C9F815A8C5
:105BE000FFF7AAFE15A801F045F812A801F042F847
:105BF0000FA801F03FF80CA801F03CF806A801F04E
:105C000039F809A801F036F819B0F0BD69F40000C0
:105C100078F400007DF4000083F4000092F40000AA
:105C200095F400009DF40000B0F40000C2F4000000
:105C300030B585B00B49041C01A801F062F801A839
:105C4000FFF77AFE01A801F015F8231CAC330025FC
:105C50000222201C1D601A72FFF7C2FE281C05B02C
:105C600030BDC046D0F400001FB5041C00F096F80B
:105C7000231CB8331860201C00F090F80A22011C85
:105C800001A801F0C1F801A8FFF756FE01A800F035
:105C9000F1FF1FBD1FB5B83001600A2201A801F055
:105CA000B3F801A8FFF748FE01A800F0E3FF05B034
:105CB00000BDB830006870471FB5041C00F06EF8D6
:105CC000231CBC331860201C00F068F80A22011C59
:105CD00001A801F099F801A8FFF72EFE01A800F035
:105CE000C9FF1FBD1FB5BC3001600A2201A801F029
:105CF0008BF801A8FFF720FE01A800F0BBFF05B05C
:105D000000BDBC300068704708B500F0DBF808BD86
:105D100000230022036042608260C260036143612D
:105D20007047016070470068704741607047406885
:105D300070478160704780687047C1607047C06875
:105D40007047000002604360009A044B82601A684A
:105D5000C16001321A60024B036170476006002087
:105D6000140600200161704770B5051C161C0C1C40
:105D700000F06EF9281C321C211C00F0C7F970BD20
:105D800038B50C1C2021051C214300F061F9281CAA
:105D9000211C002200F0BAF938BD000008B501212D
:105DA000FFF7EEFF830201D5014B184308BDC04643
:105DB0000000C0FF502337B51943151C041C00F028
:105DC00047F9201C291C00F02BF90B4B984201D8F5
:105DD000019000E001936B469979201C00F038F99E
:105DE0006B465979201C00F033F901AB1978201C5F
:105DF00000F02EF937BDC046FFFF0F0013B540235A
:105E000019430192041C00F023F90A4B019A9A42AB
:105E100000D901936B469979201C00F019F96B4663
:105E20005979201C00F014F901AB1978201C00F0FE
:105E30000FF913BDFFFF3F0013B501916021041C52
:105E400000F006F90A4B019A9A4200DD01936B4675
:105E50009979201C00F0FCF86B465979201C00F061
:105E6000F7F801AB1978201C00F0F2F813BDC0461A
:105E7000FFFF3F0013B5682319430192041C00F093
:105E8000E7F80A4B019A9A4200DD01936B46997933
:105E9000201C00F0DDF86B465979201C00F0D8F882
:105EA00001AB1978201C00F0D3F813BDFFFF3F00B1
:105EB00008B5702100F0CCF808BD08B5D82100F075
:105EC000C7F808BD08B5A02100F0C2F808BD08B5A4
:105ED000A82100F0BDF808BD38B50D1C1621041C22
:105EE000FFF74EFF0723C2B29A432B401A43201CF0
:105EF0001621FFF739FF38BD08B51621FFF740FF1F
:105F00000723184008BD10B5041C00F06DF80721E8
:105F1000021C201CFFF728FF10BD10B5041C00F068
:105F20002BF80521021C201CFFF71EFF10BD10B529
:105F3000041C00F03DF80621021C201CFFF714FF92
:105F400010BD08B50A1C0B21FFF70EFF08BD08B5F0
:105F50000A1C0C21FFF708FF08BD08B50A1C0A211E
:105F6000FFF702FF08BD08B50A1C0921FFF7FCFE78
:105F700008BD00000000000008B5081C04F098FEF1
:105F8000084B074A04F034F804F0E4FE03F03AF852
:105F9000054B984200D9181C08BDC046C046C046F3
:105FA00092239D819197C13FFF0F0000C046C046DC
:105FB00008B5081C04F07CFE084B074A04F018F8EA
:105FC00004F0C8FE03F01EF8054B984200D9181CD7
:105FD00008BDC046C046C04692239D819197C13FEF
:105FE000FF0F0000C046C04608B5081C04F060FE64
:105FF000084B074A03F0FCFF01F0B6FF02F000FA7D
:10600000054B984200D9181C08BDC046C046C04682
:106010008DEDB5A0F7C6B03FFF030000C046C046F7
:1060200008B5081C04F044FE064B054A03F0E0FFE7
:1060300002F0E6F9044B984200D9181C08BDC0468E
:10604000105839B4C8C65040FFFF0F00C046C046C4
:10605000F7B5041C17486D46026800AFD31DDB0876
:10606000DB00ED1AAD466B46581B904203DA002068
:1060700018700133F8E7E3680126E954206800212D
:1060800000F0D6FA3E717E717A6820690A49FFF7FE
:1060900015FB084B291C1A682069FFF78BFB206948
:1060A000FFF76CFB2068311C00F0C2FAE368BD46C4
:1060B000E85CFEBD60060020801A0600F0B5171CE3
:1060C00085B002900391D5087A0700D001350024ED
:1060D000261CAC420FDA0C4A0399AB181B1BDB00E1
:1060E000D940C9B202980193FFF7B2FF019B013476
:1060F00098400643EDE72020C71B01204042F840AE
:10610000304005B0F0BDC046FFFFFF1F08B5031CBF
:10611000081C0138111C182833D802F027F8120D7A
:10612000121519191F1C292929292229292925294C
:1061300025271F29292C2E00181C0922FFF7BEFF36
:1061400024E0181C1622F9E7181C00211422F5E798
:10615000181C0C22F2E7181C0D22EFE7181C0A226B
:10616000ECE7181C0E22E9E70F2200E07F22114025
:10617000181C0822E2E7181C01E0181C002110225C
:10618000DCE7D1B2181CFFF763FF002008BD000058
:1061900038B5134D1349281C00F003FB124913486E
:1061A00000F0FFFA1249134800F0FBFA12491348B5
:1061B00000F0F7FA1249134800F0F3FA124C1349B1
:1061C000201C00F0EEFA291C24222323104800F0A2
:1061D000A7FC211C002201230E4800F0A1FC38BDC1
:1061E00028070020001C0042000C00422C07002061
:1061F0000010004230070020001400422407002055
:106200000018004234070020380700200008004230
:1062100064060020C4060020014B18687047C04681
:106220003C07002070B5041E09D0054B1D681E1CDC
:1062300000F010F83268631E521B9A42F8D970BD04
:106240003C070020024B1A6801321A607047C046B2
:106250003C0700207047FEE708B5034B1B68002B86
:1062600000D0984708BDC046400700204449082395
:1062700030B50B604349444A0B60802109059160A9
:10628000916142491E2248689043022210434860AF
:106290003F49886903438B613E483F4B9882988A07
:1062A00002439A82DA689007FCD53C4A01201070BC
:1062B0001078C40704D53948407840B20028F7DB8D
:1062C00001209060507840B20028FBDB344C33480A
:1062D0004460507840B20028FBDB82242F48E40160
:1062E0004480507840B20028FBDB988C8024A04387
:1062F0009884D868C506FCD52A4C2748C462DC6857
:106300002548E506FBD5848C274D2C438484DC6826
:106310002148E506FBD5848C02252C438484D8686B
:106320000406FCD51C48C0684506F8D5D868C406E4
:10633000FCD500209060507840B20028FBDB1B4C5D
:10634000164844605478154864B2002CFADB1D6A84
:10635000174C2C401C621C6A8025AC431C62032332
:106360008360144B436053785BB2002BFBDB00234C
:106370000B72114A4B728B72CB72104B1A6030BD8C
:1063800088440041984400410044004100400041DD
:10639000000400400C06000000080040000C004013
:1063A00001050100B805FF7D040A00000007030095
:1063B000FFFCFFFF03060100006CDC020800002068
:1063C00038B51049104CA14206D104F08FFDFFF7FB
:1063D0004DFF00F055F90BE00C4D8D42F5D0002338
:1063E000CA18E818A24204D2006804331060F7E724
:1063F000FEE79042E9D0064B064A9342E5D20022DE
:1064000004C3F9E7000000203001002034FE000042
:10641000300100200C0E0020014B18607047C04670
:1064200040070020274BFA21186810B5890001F0B9
:10643000A7FE254B013898421DD8244B244A5860AA
:10644000106AC0210002000A0906014311620024FB
:1064500007229C601A601F4BFC211A6A0A431A62C9
:10646000196AFF2212020A431A62196AA022D20292
:106470000A431A6200E0FEE7201C0021013400F00C
:1064800039F8132CF8D1144B144AA4215380144B1F
:10649000C900998013491961112199703F21D97060
:1064A00002215970187801431970597EC9090129D0
:1064B000FBD00D4B53800D4B41225A700C4A1A8170
:1064C00010BDC04608000020FFFFFF0010E000E004
:1064D00000ED00E0000400401E400000000C004001
:1064E000004000420018000F214000000048004218
:1064F000FF030000182358431A4A30B51318082424
:106500001C5701342DD001291ED000290FD002299B
:1065100027D181565A68CB01134906205B18991878
:1065200040310870012191405960996119E081560C
:106530000D485A68CB011B18991840310220087089
:106540000121914059600CE080565A68C301064809
:1065500002251B189818403004789140AC43047011
:10656000996030BDF0F4000000440041182242431D
:10657000F8B52D4D0824AA181457031C621C50D0DE
:10658000481C00240C284CD801F0F0FD071E1E1EEC
:106590001E1E1E1E1E0A0A0A0A000124644240E052
:1065A000092902D1181C002103E00A2904D1181C72
:1065B0000221FFF79FFF23E000240B2931D1181C93
:1065C0000121FFF797FF2CE018225343EA18526885
:1065D000EB560120141C04405508DB01002C11D09F
:1065E000124C1B195D1930352E780C010F213140EA
:1065F00021439A18C9B22970403213781843107099
:1066000000240EE0094E0F279B195D1930352E78B6
:106610009A18BE433143C9B22970403213781843E7
:106620001070201CF8BDC046F0F40000004400418A
:10663000182358430F4A30B5131808241C57013447
:1066400017D080560C4C5B68C0010219D418403436
:1066500004252570002903D0012908D0012106E076
:1066600001229A40131C054A8018436001E09940BA
:10667000916130BDF0F4000000440041104400413D
:1066800010B5FFF7CFFE0120FFF7CCFD084C201C12
:1066900001F03AFA201C01F097FAFEF709FEFEF726
:1066A000EDFE044B002BFAD000E000BFF7E7C04638
:1066B000F00C002000000000F8B5061C0C1C8F1820
:1066C0000025BC4207D0336821781B68301C9847EE
:1066D00001342D18F5E7281CF8BD38B5051C0C1C35
:1066E000081E07D004F0D0FD2B68021C5B68281C34
:1066F000211C984738BD10B504680B1C9A680968BE
:106700006368984710BD08B5FFF7E7FF08BD0000B4
:1067100008B50249FFF7E1FF08BDC04603F40000D9
:1067200038B5041CFFF7E7FF051C201CFFF7F0FF3E
:10673000401938BDF0B58BB0151C09AB0022071C01
:106740000E1C1A70012D00D80A256C462334301C0B
:10675000291C01F015FD031C6B43F61AF6B2211C2F
:10676000092E01D8303600E03736F6B22670013CEB
:10677000002801D0061CEAE7381CFFF7AEFF0BB07B
:10678000F0BD08B5002A04D10368C9B21B68984758
:1067900002E0D2B2FFF7CEFF08BD08B5FFF7F1FF68
:1067A00008BD01607047F7B508AC267804689D1EE7
:1067B00027686C1EA541ECB2920705683A4327068C
:1067C0003A432A600268072529405068B501002C29
:1067D00000D05C03294301430C435460F7BD30B53E
:1067E0000368C0251C68AD0312052A402243C0245B
:1067F000A402090421401143196003685A68144334
:106800005C6030BD036801211A680A431A6002689F
:10681000116801231942FBD1D1691942F8D170479F
:10682000036802211A680A431A600268D36999074B
:10683000FCD470470268137E9907FCD57047036843
:1068400000225A8370470368187E4007C00F7047C4
:106850000368588B4007C00F70470368588B800748
:10686000C00F70470368588B0123184070470368B6
:10687000188DC0B2704703681A7E01200242FBD017
:106880001985704770B5036801268D07ED0F3140FB
:106890001C686D07090729432143196004685100EA
:1068A000034801F06DFC0138C0B2207370BDC046D2
:1068B000006CDC02036801211A680A431A6002684E
:1068C000116801231942FBD1D1691942F8D17047EF
:1068D000036802211A680A431A600268D36999079B
:1068E000FCD47047036802211A688A431A60026860
:1068F000D3699907FCD4704770B50125041C0D407D
:106900008907CE0FFFF7EEFF23687107074A1E685D
:10691000201C16400E431E6023682A0704491D6888
:106920000D4015431D60FFF7D3FF70BDFFFFFFDF74
:10693000FFFFFFEF10B503681A7ED407FCD59A6AF3
:10694000520A52021143996203681A7E9107FCD5DC
:10695000197E01221142F8D010BD0368197E012270
:106960001142FBD0197E89081142F7D0986AC00500
:10697000C00D70470368224A30B5934211D0214AB6
:10698000934211D0204A934211D0204A934211D011
:106990001F4A934211D01F4A934230D10E2319222D
:1069A0000DE0092314220AE00A23152207E00B2335
:1069B000162204E00C23172201E00D231822DCB27A
:1069C000154901209B08A0409B0008605B1803202C
:1069D000C021890004405D58E000FF248440A543A5
:1069E0002C1CC0258540281C204358508023DB01E7
:1069F0001A430A4B5A805A7852B2002AFBDB30BD48
:106A000000080042000C0042001000420014004246
:106A100000180042001C004200E100E0000C0040B1
:106A2000F8B5041C151C0E1C1F1CFFF7A3FF201C2F
:106A3000FFF7E8FEB1001C220A4069072368090C31
:106A40000A431A60226884239375012E1AD1082103
:106A5000012D00D110210C4B79431868C00001F0C2
:106A60008FFB236807219A890140D2044903D20C85
:106A70000A439A8123680004C20C9889400B4003A2
:106A800010439881F8BDC04608000020F7B5019377
:106A900008AB041C1F780D1C161CFFF70BFF201CF5
:106AA000FFF768FFBF070C221743C0229203360589
:106AB0001640C02292022D0423683E4301991540DE
:106AC000354307221D600A408021236889020A435A
:106AD0005A60F7BD0120704710B5041C0069FFF72C
:106AE00091FE201C143001F003FA10BD08B50069B6
:106AF000FFF7A0FE08BD08B5143001F00BFA08BD81
:106B000008B5143001F00CFA08BD08B5143001F0D6
:106B1000F3F908BD08B50069FFF7ADFE012008BD17
:106B2000F8B51D1C00234360FA239B008360084BCB
:106B3000041C0833036014300F1C161C01F0C2F94A
:106B4000231C5C332761201C1E705D70F8BDC0469D
:106B500080F9000010B5041C0069FFF774FE0028DE
:106B600007D02069FFF783FE011C201C143001F0C0
:106B7000B4F92069FFF76CFE002809D12069FFF7FE
:106B80006CFE002804D12069FFF76CFE002802D0BB
:106B90002069FFF754FE10BD0F23081C98433038BE
:106BA000434258417047002070470F231940012984
:106BB00005D002394B424B410220C01A00E00020B0
:106BC00070470000F0B5031C85B003915C33041CD2
:106BD000182718783B1C43431A4E0821F3185956BE
:106BE000151CFFF7C3FC231C5D33187808214743AD
:106BF000F6197156FFF7BAFC01210A1C039B2069A4
:106C0000FFF70EFF291C201CFFF7CDFF291C071CD6
:106C1000201CFFF7CAFF291C061C201CFFF7BCFF25
:106C2000331C0090391C20690122FFF7BCFD20694C
:106C300001210322FFF7D3FD2069FFF7F1FD05B025
:106C4000F0BDC046F0F4000008B51322FFF7BAFF0C
:106C500008BD000008B50248FFF77CFF08BDC0462C
:106C6000C406002008B50248FFF774FF08BDC046FF
:106C70006406002010B5041C006804F071F9201CA3
:106C800010BD10B5041C0068002801D004F068F99C
:106C900000232360A360636010BD38B5041C0D1C85
:106CA0000068013104F046FA002801D021C4012017
:106CB00038BD036810B5041C002B02D043688B421A
:106CC00009D2201CFFF7E9FF002805D0A368002B9C
:106CD00001D122681370012010BD70B50E1C111C6B
:106CE000041C151CFFF7E5FF002803D1201CFFF74B
:106CF000C8FF04E0A5602068311C04F0BDFA201C28
:106D000070BD38B50023041C0D1C03604360836014
:106D1000994207D0081C04F0B7FA291C021C201C59
:106D2000FFF7DBFF201C38BD70B50E1C111C041CC6
:106D3000151CFFF7BEFF002803D1201CFFF7A1FFA1
:106D400004E0A5602068311C04F096FA201C70BD98
:106D500010B50B1C041E8C4208D00968002903D012
:106D60009A68FFF7BAFF01E0FFF78BFF201C10BD08
:106D700010B50023041C036043608360FFF7E8FF45
:106D8000201C10BD38B5041C0D1E08D0081C04F0D2
:106D90007BFA291C021C201CFFF79FFF01E0FFF774
:106DA00070FF201C38BD13B5002301AA041C11700C
:106DB000036043608360111C5370FFF7E3FF201CE6
:106DC00016BD1FB50023041C036043608360081CCC
:106DD00001A901F04CF8201C01A9FFF7D3FF201CEA
:106DE00004B010BD10B500238AB0041C03604360DA
:106DF0008360081C01A901F002F8201C01A9FFF71B
:106E0000C1FF201C0AB010BD10B500238AB0041CBD
:106E1000036043608360081C01A900F0ABFF201CE5
:106E200001A9FFF7AFFF201C0AB010BD10B5002369
:106E30008AB0041C036043608360081C01A900F051
:106E4000E2FF201C01A9FFF79DFF201C0AB010BD26
:106E5000C0B500238DB0061C171C0360436083601F
:106E6000081C03F025FF03ABBA1C52B200933B1C75
:106E700001F002F8011C301CFFF784FF301C0DB03C
:106E8000C0BD38B5041C0D1E08D0081C04F0FCF968
:106E9000291C021C201CFFF747FF01E0FFF7F1FE51
:106EA000201C38BD10B50023041C036043608360C0
:106EB000FFF7E7FF201C10BDF8B5041C0F1C866807
:106EC00001D100250FE00125002A0CD09619311CB4
:106ED000FFF7EFFE0028F4D02268A368391CD01811
:106EE00004F0CAF9A660281CF8BD08B50B1C9A6806
:106EF0000968FFF7E1FF08BD0B1C10B509689A6827
:106F0000041CFFF7D9FF002802D1201CFFF7B9FEAF
:106F1000201C10BD38B5041C0D1E09D0081C04F03F
:106F2000B3F9291C021C201CFFF7C6FF002802D160
:106F3000201CFFF7A6FE201C38BD08B58368002B77
:106F400005D1002901D0087808E0012009E0006897
:106F5000002901D1007801E004F084F9434258414E
:106F6000C0B208BD38B50D1C002A14D0002912D0BB
:106F700081688B4202D300232B700CE0541EC91A87
:106F80008C4200D90C1C0168221CC918281C04F072
:106F900098F900232B5538BD836810B59A4207D263
:106FA0000468A01804F052F9002801D0001B01E089
:106FB0000120404210BD08B50022FFF7EDFF08BDDB
:106FC000836810B59A4208D204680968A01804F0D2
:106FD0008CF9002801D0001B01E00120404210BDC7
:106FE00008B50022FFF7ECFF08BD0000F7B5071C4D
:106FF0000E1C141C1D1C9A4201D92C1C151C381C7B
:107000000C49FFF77EFEB3689C4210D89D4200D920
:107010001D1C3268381C53191A78019200221A700C
:1070200033681919FFF7AEFE3368019A5A55381CB8
:10703000FEBDC0463EF10000F8B50668051C002EF6
:1070400023D08768341C002F1FD0207803F074FFF2
:10705000002801D00134F8E7013FF719387803F030
:107060006BFF002809D101373A1BAA60B44208D946
:10707000301C211C03F07EFF03E0A742F3D3013F45
:10708000ECE72A68AB680021D154F8BD006808B568
:10709000002801D003F014FF08BD006808B50028DF
:1070A00004D003F008FF03F055FE00E0002008BD07
:1070B000094B1A1CFC32506891681A1C884206D190
:1070C000FF335B7A002B02D10120404203E0131C06
:1070D000FC339B68D05C70474407002013B50268FE
:1070E0006B46D97107335468191C0122A04716BD9D
:1070F000F0B58022C1B069465200022000F0B8FC11
:10710000EFF3108501231D40AC4672B6104A0021F2
:10711000131CFC335B68814212D0141CFF34667A66
:10712000002E0DD16D466F5C5E1CD754F3B2161C59
:10713000FC36B668B34201D1012666720131EAE736
:10714000FC3253606346002B00D162B641B0F0BD03
:107150004407002038B5184C051C231CFC335A6822
:107160009B689A420DD1231CFF335B7A002B08D118
:10717000022000F055FC002803D02B68281C9B69D6
:107180009847231CFC335A689B689A4207D1231CFA
:10719000FF335B7A002B02D1012040420AE0231C1E
:1071A000FC339A68A05C9A68FF340132D2B29A60CC
:1071B0000023637238BDC0464407002008B5032091
:1071C00000F0CAFB08BD00000C4B1A1CFF32527ABB
:1071D000002A10D11A1CFC3251689268914204D1E5
:1071E0004A2207490120FF328854FC3358689B68C3
:1071F000C01AC0B201E08020400070474407002060
:107200000050004110B5074B041CDB79002B04D063
:10721000032000F0FBF8002801D001236360002068
:1072200010BDC0465400002008B503784221023347
:107230000370024800F062F908BDC046100000204B
:1072400010B50178031C42780020A12907D1212A1A
:107250002DD11748072100F051F9012027E02129FD
:1072600025D1202A04D10721114800F0BBFB04E0FE
:10727000222A10D19A780E4BDA710D4B962219689A
:10728000D200914210D1DC7901231C400CD1FA20AC
:1072900000F006FE0AE0232A09D1DA789B78120270
:1072A0001A43044B1A6002E000F004FE002010BDF7
:1072B000540000200C0000207047000010B5FEF7BD
:1072C000ABFFF423FF330024984207D9044B0A2074
:1072D000DC79631E9C41E4B2FEF7A4FF201C10BDC4
:1072E00054000020054B00225A60FA2292009A6056
:1072F000034A08321A60034A1A6170475008002096
:10730000B0F90000F00C002070B5C2B21949530169
:10731000CB189E68184DC0242E40A40526439E60BD
:10732000164E800109683018083258605201505CCE
:107330000726B0430126304350549E6935402C4304
:107340009C610F4C5C61505C7024A043102420436E
:1073500050549C680B488A182040802464032043C2
:10736000986098684021800B8003986053790B43A4
:10737000537170BDF80C0020FFFFFF8F2C0B002015
:107380006C090020FF3F00F038B5041C08CC012137
:107390001A78051C0A431A708022201C0021520012
:1073A00003F00AFE2B689A78D107FCD45C6238BDE2
:1073B000134BF0B51B6899035A029B01C90ED20EFC
:1073C0005B0F1F2900D105211F2A00D11D22072B89
:1073D00000D1032304688E01278D0A491F253940F7
:1073E0003143218501682A400C8DAC4322430A8534
:1073F00002681903108D044B03400B431385F0BD45
:10740000246080003FF8FFFFFF8FFFFFF0B5264BA1
:1074100085B01B68071C0E1C141C002B40D0802359
:10742000DB019A423CD88022204B12055A61002C85
:1074300034D0251E3F2D00D940251D4ABB01D3184D
:10744000181C311C2A1C039303F094FDF9B2194A4D
:1074500003984B01D3185861A804800C0390029143
:107460009969880B03998003014399610299126815
:1074700008314B01D3180220D87101925A7980202B
:1074800003924242039810435871019A4B01D3185A
:10749000DB799807F9D5641B7619C8E7201C01E051
:1074A0000120404205B0F0BDFC0D00200044004129
:1074B0006C090020F80C002070B50D4D8301ED180B
:1074C000061C281C141CF6B203F054FD094B76016F
:1074D0009B195D619969084A201C0A409A619A6962
:1074E000A104920B890C92030A439A6170BDC046B5
:1074F0006C090020F80C0020FF3F00F0F8B5114B9C
:10750000071C1B780C1C002B1AD10F4B1E78002E69
:1075100001D10D1C0AE00D4D0D482E88391C801933
:10752000221C361903F026FD2E8009E0002D07D01D
:10753000B9192A1C0020FFF7BFFF36182D1AF5E7EE
:10754000201CF8BDEF0C0020ED0C00206809002085
:107550006808002008B5044B00221A70034B044849
:107560001988FFF7CBFF08BDED0C0020680900204B
:1075700068080020F8B5051C00AF012920D94B0888
:107580005B000833DB086A46DB00D21A9546684682
:107590000122AB18013B1C785300002C0AD1C022F9
:1075A00092001A43191C0280FFF7A8FF431E98415E
:1075B000C0B206E0DEB2B142F1D0C4520132E8E717
:1075C0000020BD46F8BD37B500236C46E371073493
:1075D000051C201CFFF728FE2B681818286020784F
:1075E0003EBD0000F0B51D4B87B00025009001277F
:1075F00002A81F700295FFF7E6FF03AC0926019071
:10760000291C201C321C03F0D7FC0223637080234A
:10761000E371FA232372029B26709B196380019BFE
:10762000677123710D4B1D70009BB34204D1201C68
:10763000191CFFF763FF0DE0094B311C1F70094B4C
:10764000201C1D800295FFF759FF02A8FFF7BBFF22
:10765000FFF780FF012007B0F0BDC046EF0C00200F
:10766000ED0C00206809002008B5C278031C022A2E
:1076700006D1C088FFF7B6FF431E9841C0B225E08F
:10768000012A04D1C188124811291BD817E0002013
:10769000032A1BD19A78824205D10E48D9880378F3
:1076A0008B420CD80EE0022A02D199790A4803E0F5
:1076B000012A0BD199790948FFF75CFF06E0C9B2AE
:1076C000002900D10178FFF719FF012008BDC0464D
:1076D000E8F90000D8F90000FAF90000DCF9000030
:1076E00038B5832916D1C2B230495301CB189D69F0
:1076F0002F4C80012C40C025AD052C439C612D4CA6
:107700000832201858610B685201D15C7020814307
:10771000402043E0022923D1C1B2244A4B01D318AF
:107720009D68234C80012C40C025AD052C439C60F6
:10773000214C12682018083158604901885C0724E0
:10774000A04303242043885499681C4A0A4080219E
:1077500049030A439A609A68920B92039A6024E064
:1077600082291ED1C2B211495301CB189D69104C18
:1077700080012C40C025AD052C439C610D4C083286
:10778000201858610B68520199180C7980204042EA
:1077900020430871D15C7020814330200143D154D3
:1077A00003E0002901D1FFF7AFFD38BDF80C002040
:1077B000FFFFFF8F6C0900202C0B0020FF3F00F023
:1077C0000F4B9A69920B92039A611B680222FF3356
:1077D0001A729979802252420A439A711A7A910751
:1077E000FCD5084B011C987A7F2211409043084336
:1077F0009872997A802252420A439A727047C04620
:10780000F80C00200050004110B50124054BA200E7
:10781000D158002905D0201C0134FFF761FFE4B2E4
:10782000F4E710BD5C00002037B5041C40780B283D
:1078300071D800F09BFC081A7026703B3F06434647
:107840006268002068E0207801A9002802D1087051
:10785000487008E000230B704B70304B1B78012BF5
:1078600000D10B70002002224AE0A2780023012AF6
:1078700004D101A90B704B70294BEFE7274A137015
:1078800044E0A578012D06D1254B01A900201D70EB
:1078900008702A1C34E0002D08D1204B01201870FC
:1078A000204B9A69920B92039A6135E0A078FFF71A
:1078B00087FF30E0201CFFF7D7FE2DE000201A499B
:1078C0001DE023780020DA0626D1FFF79DFFA2787D
:1078D000154B2A211A60134AFF3113680224585CA1
:1078E000204358544A21FF315C5C012004435C541E
:1078F00093699B0B9B0393610EE00C4900200122CE
:10790000FFF7DAFD07E0A278084B1A60054B9A6989
:10791000920B92039A6101203EBDC046EC0C002000
:10792000EE0C0020F80C0020FC0D0020F40C0020D0
:1079300008B5027900239A4209D1FFF781FC031EA2
:1079400005D1044B9A69920B92039A610123181C8A
:1079500008BDC046F80C0020C3B2094A59015118AD
:10796000896889040AD0106808335B01C01842791D
:1079700080235B42134343710223C3717047C046A7
:10798000F80C002070B5C2B2134B144954018001A9
:1079900018180B1958609D68114808322840802536
:1079A000AD022843986098684026800B8003986059
:1079B0000B685001181805793543057150011818E6
:1079C00080794506FAD550011818C079C507FAD54F
:1079D0000C19A068C0B270BD2C0B0020F80C002060
:1079E000FF3F00F038B50C4B0C1C1B684021FF33E7
:1079F0005A79051C0A435A710020FFF7C3FFA042C1
:107A000000D9201C0023A34204D0044A9A5CEA5403
:107A10000133F8E738BDC046F80C00202C0B0020DD
:107A2000034BC0B24001181880688004800C704776
:107A3000F80C002010B5C0B20C4940010B189A6830
:107A40009204920C3F2A08D9141C9A68403CA40462
:107A5000920BA40C9203224302E09A68920B9203C9
:107A60009A6008188068C0B210BDC046F80C0020AB
:107A7000F7B5214B071C1B680191141C002B35D056
:107A80001E4B0822C5B21E4E1A606B01F3189A688D
:107A90009204920CA24202D29C68A404A40C381C4A
:107AA000FFF7C8FF326869015318FF335A7A009113
:107AB00001210A431349BF015A72C9190198221CB6
:107AC00003F058FA0020844214D0009AB3189B683F
:107AD0009B0483420DD1336808356D015D192B7904
:107AE000402213432B710123EB7102E0012040423D
:107AF00000E0201CFEBDC046FC0D00209444004167
:107B0000F80C00202C0B002038B5264B2021DA6918
:107B1000051C0A43DA61244B01201A78062402432B
:107B20001A70224B0F22197891431970197821434A
:107B300019701F490C782043087019780A401A7090
:107B40001A7860210A431A701A4B1B4A5A805A78D5
:107B5000D209FCD11948FEF75FFC194C201CFFF735
:107B600013FC201CFFF724FC23687F2219780A40AD
:107B70001A701A7804210A431A701A890C218A4350
:107B80001A81C1210F4A890050580002000A505042
:107B9000802111601A7802210A431A7001232B7088
:107BA00038BDC04600040040584400413C440041F8
:107BB00059440041000C0040064000006D7D00006B
:107BC000F80C002000E100E00078002810D0094BFC
:107BD00001211B681A898A431A811A8B08210A43DA
:107BE0001A831A8B04210A431A83034B00221A605A
:107BF0007047C046F80C0020FC0D0020014A024BE3
:107C00001A60704700500041F80C002008B50228A7
:107C100007D1134B9B6C9B0420D01248FFF768FAE6
:107C20001CE003280BD10E4BB2221B685200985C5B
:107C30008021494201439954022168220CE0012825
:107C40000CD1074B92221B685200985C802149425C
:107C50000143995402212822FF32995408BDC0469D
:107C6000F80C002050080020394B70B51C78002C0F
:107C70006CD1384D29688B8B1A070DD5201CFFF766
:107C800043FB2B6810201A1CFF32917A014391723A
:107C9000314A146008229A832B689A8B510701D5C8
:107CA00004229A83FF331A7AD10625D510221A723C
:107CB0005A7940210A4329485A71027860231A42AE
:107CC00002D1FFF7B1FD01E0FFF732FE002806D038
:107CD0002B688022FF33997952420A4301E0204BFE
:107CE00020229A712B68FF331A7A510604D540225C
:107CF0001A72597A0A435A721A4B802212059A61F3
:107D0000194B08221A602A68FE23168C00241E4094
:107D1000E0B2002E1AD0321C012322411A420ED0AA
:107D2000221C2968083252018A18D17919420AD1D5
:107D3000D279DA401A4206D10123A3409E4301348E
:107D4000092CE5D102E0FFF761FFF5E770BDC04601
:107D5000ED0C0020F80C0020FC0D00202C0B002066
:107D6000FF500041004400419844004108B5FFF72E
:107D70007BFF08BDF0B58FB00D1C029235D0131CEF
:107D8000023B222B33D80A2A33D1002831DA0123CF
:107D90004642039305AC0194002E12D0301C029988
:107DA00000F032FA301C0F1C029900F0E9F9631C54
:107DB000061C092F01DC303700E0573727701C1CE8
:107DC000EAE7019A9442E9D0039A2B1C002A02D0D8
:107DD0002D226B1C2A70019A944204D9013C22780E
:107DE0001A700133F7E700221A70281C05E0002002
:107DF00003E00022061C0392CCE70FB0F0BD08B5EB
:107E0000FFF7B8FF08BDF0B58DB0061C0D1C019240
:107E100028D0131C023B222B26D803AC0094002E42
:107E200012D0301C019900F0EFF9301C0F1C0199A1
:107E300000F0A6F9631C061C092F01DC303700E0B6
:107E4000573727701C1CEAE7009A9442E9D02B1C94
:107E5000009A944204D9013C22781A700133F7E762
:107E600000221A70281C00E000200DB0F0BD08B5FB
:107E7000FFF7C9FF08BD000070B586B0041C0D1CDB
:107E80000A9E064901A803F0BFF9301C01A9221C73
:107E90002B1C03F0B9F9301C06B070BD07FA0000C6
:107EA00008B5024B1860024B9847C0466C00002092
:107EB00019FE0000024B012252421A607047C04670
:107EC0006C00002010B500214022041C03F074F85F
:107ED0000023201C2364636410BD026C10B53F2393
:107EE000541C2340446CA34201D08154036410BD50
:107EF0000023036443647047436C026C934206D0D2
:107F0000C25C3F2101330B404364101C01E001209F
:107F100040427047026C436CD01A00D54030704725
:107F2000436C026C934201D0C05C01E001204042EE
:107F30007047026808B501231A4207D14278002A27
:107F400001D002F0B1FF4370181C00E0002008BD12
:107F500001230360704708B5031C081C191C02F0BC
:107F6000B5FF08BD00000000F0B556464D4644463A
:107F70005F46F0B4504A4F007F0D83B0BE18041C1A
:107F80000D1C89468A4680460197132E2FDC002E51
:107F900068DB4A4F021C37413B1C0B4003439C46A5
:107FA000BB4667460B1C002F18D0404B3E4A01F0E1
:107FB00099F83F4A3F4B00F0BDF900280CD0002D46
:107FC00004DD80235B0333415E19B24653465F46AE
:107FD000BB430022994690464B464246101C191C52
:107FE00003B03CBC90469946A246AB46F0BD332E4A
:107FF0000BDD0B1C8021021CC9008E42EED1291C16
:1080000001F070F8021C0B1CE8E7019F2C4ABB181A
:1080100001225242DA4093465F46021C0B1C074283
:10802000DCD0224B204A01F05DF8214A214B00F0C0
:1080300081F90028D0D0002D0CDD142E2ED0214B3C
:10804000019A9F1A0123BB401F19BC421ED96B1C09
:108050009A46B84647465A469743B846D1464B4695
:108060004246BBE7114B104A01F03CF8104A114B55
:1080700000F060F90028AFD0002D09DB00272C4369
:10808000B846B946A8D0104A9146A5E7B846E1E7F8
:108090000023984680231B0699469DE76B1C9A4651
:1080A000D8E7C046C046C0469C7500883CE4377E91
:1080B000000000000000000001FCFFFFFFFF0F00B8
:1080C000EDFBFFFF330400000000F03FC046C04658
:1080D0000B1C011C021C30B519430220002900D1E1
:1080E00030BD802109068B4216D00D4904205C1852
:1080F0000C498C42F4D90C4D5C198C42F0D90B4CD4
:10810000590049080320A142EAD9074C0020A142A6
:10811000E6D150425041E3E7002AE1D0EFE7C04604
:108120000000F0FFFFFFDF7F0000F07FFFFF0F0088
:1081300043005B080220002B00D17047074A04204F
:108140009918074A9142F8D9064A591E03209142CC
:10815000F3D9054A9B1858425841EEE7000080FFCA
:10816000FFFFFF7EFEFF7F000000808002B47146AB
:1081700049084900095C49008E4402BC7047C0466A
:10818000002934D00123002210B488422CD30124CA
:108190002407A14204D2814202D209011B01F8E75F
:1081A000E400A14204D2814202D249005B00F8E718
:1081B000884201D3401A1A434C08A04202D3001B44
:1081C0005C0822438C08A04202D3001B9C08224377
:1081D000CC08A04202D3001BDC082243002803D0B5
:1081E0001B0901D00909E3E7101C10BC70470028E7
:1081F00001D00020C04307B4024802A140180290F9
:1082000003BDC046D90000000029F0D003B5FFF738
:10821000B9FF0EBC4243891A1847C046002941D015
:1082200010B4041C4C40A44601230022002900D5B0
:108230004942002800D5404288422CD3012424071B
:10824000A14204D2814202D209011B01F8E7E400F5
:10825000A14204D2814202D249005B00F8E7884281
:1082600001D3401A1A434C08A04202D3001B5C08F9
:1082700022438C08A04202D3001B9C082243CC0856
:10828000A04202D3001BDC082243002803D01B09B4
:1082900001D00909E3E7101C6446002C00D54042D8
:1082A00010BC7047002806D003DB0020C043400804
:1082B00001E08020000607B4024802A140180290A5
:1082C00003BDC046190000000029EBD003B5FFF73D
:1082D000A7FF0EBC4243891A1847C0467047C046E4
:1082E0008446101C62468C46191C634600E0C0465A
:1082F0001FB501F0FFFD002801D40021C8421FBDB9
:1083000010B501F02FFD4042013010BD10B501F055
:10831000F1FD002801DB002010BD012010BDC0468A
:1083200010B501F0E7FD002801DD002010BD01209F
:1083300010BDC04610B501F05FFD002801DC002033
:1083400010BD012010BDC04610B501F055FD00283C
:1083500001DA002010BD012010BDC0468446081C73
:108360006146FFE71FB500F067FB002801D400213C
:10837000C8421FBD10B500F0EDFA4042013010BDFB
:1083800010B500F059FB002801DB002010BD0120D2
:1083900010BDC04610B500F04FFB002801DD0020E5
:1083A00010BD012010BDC04610B500F0FDFA002838
:1083B00001DC002010BD012010BDC04610B500F04A
:1083C000F3FA002801DA002010BD012010BDC046DC
:1083D0009E2110B5C905041CFFF7F0FF002803D14A
:1083E000201C00F00FFE10BD9E21C905201C00F0CE
:1083F00099FC00F007FE80231B06C018F3E7C04677
:1084000038B50E4B0C4A041C0D1CFFF79DFF0028CD
:1084100004D1201C291C02F0A5FB38BD074B064ADD
:10842000201C291C02F074F802F09CFB80231B0620
:10843000C018F2E7C046C046000000000000E0415E
:10844000F8B543024400C50F4E024800240E2A1C12
:108450009B09000EC90FB6098D4256D0221A002A78
:1084600000DC83E000281AD1002E00D06FE058070E
:1084700004D00F221A40042A00D00433590137D502
:108480000134FF2C00D17DE09B015B0AE0B22A1C85
:108490005B02C405580AD20720431043F8BDFF2CE5
:1084A000E5D08021C9040E431B2A00DD27E1311CE1
:1084B0002020D140821A9640721E96410E439B1B8B
:1084C0005801D4D59B019F09381C02F0CFFC421FF4
:1084D000974094425ADC141B1F231B1B3A1C9F40DD
:1084E000611C3B1CCA405F1EBB4113430024BEE716
:1084F000DB08E0B22A1CFF2C04D1002B79D08021AC
:10850000C9030B435B025B0AC2E7211A002941DD64
:10851000002822D0FF2CAAD08020C00406431B29AB
:1085200000DDEAE0301C2027C840791A8E40711E19
:108530008E4106439B19590199D50134FF2C57D020
:10854000704901221A400B405B0813438FE7013A40
:10855000002AB4D0FF2CA7D189E7002E00D186E7EE
:1085600001390029E6D0FF2CD9D180E7002A1DD19E
:10857000621CD2B2012A4DDD9F1B7A0125D5F71A64
:108580000D1CA1E72A1CFF20002381E75D4BA41AE4
:108590003B406CE7002946D1611CC8B201282ADDA6
:1085A000FF2925D0F3185B080C1C60E7002C13D0C2
:1085B000FF2818D08024E404524223431B2A4DDDB7
:1085C0000123F31A041C0D1C7AE7002F00D07BE76F
:1085D00000220020002395E7002B3BD0D243002A45
:1085E000EFD0FF28EAD1331CFF240D1C3FE7002207
:1085F000FF2000234CE7002C5AD1002B77D0002E0F
:1086000000D134E79B19580100D430E73D4A0124DA
:1086100013402CE7002C15D1002B2FD1002ED7D0E2
:10862000331C0D1C23E7002C21D1002B53D0C94350
:10863000002904D0FF284BD01B294FDD01239B19B3
:10864000041C78E7002B22D1002ED0D0331C0D1C47
:10865000FF240CE7331C041C0D1C08E71C1C202500
:10866000D440AA1A93405A1E93412343A9E7FF28F6
:108670002ED08024E40449422343DDE7002E00D1BC
:10868000F5E69A1B500134D5F31A0D1CEFE6FF24D2
:10869000002E00D1EBE68022DB08D203134204D087
:1086A000F608164201D1331C0D1CDB00FF24DEE668
:1086B000002B0DD0FF24002E00D1D8E68022DB084D
:1086C000D2031342F1D0F6081642EED1331CECE788
:1086D000331CFF24CBE6331C041CC8E61C1C2027DB
:1086E000CC40791A8B40591E8B412343A7E7331C9A
:1086F000BDE6131E00D0BAE66AE701261AE7012696
:10870000DDE6C046FFFFFFFBF0B55F4656464D462F
:108710004446F0B446024500C00F85B00F1C760AEF
:108720002D0E804641D0FF2D26D080242404002128
:108730002643F6007F3D89468B46F90F7C02780080
:10874000640A000E00918A463CD0FF2834D0802372
:108750001B041C430023E4007F380193009F434621
:10876000019A7B4049469C4611430F2900D971E08C
:10877000764F89007F58BF46002E3ED10822022343
:1087800091469B46D9E75A46341CC246019201994C
:10879000022937D0032900D1CFE0012900D0ABE076
:1087A00053460B400022002632E0002E19D104214E
:1087B000012289469346C0E7221C531E9A41023289
:1087C0000192CBE701270197002CC7D0201C02F0B3
:1087D0004DFB431F9C4076235B420021181A0191F8
:1087E000BCE7301C02F042FB7625431F9E406D42E1
:1087F00000232D1A99469B469FE70C230321994697
:108800008B469AE7D446012367463B40FF22002669
:108810007602D205700ADB071043184305B03CBC52
:1088200090469946A246AB46F0BD80260023F6034B
:10883000FF22EDE700220026EAE78020C00306427F
:108840003BD0044239D1061C26437602760A009BAF
:10885000FF22DDE7281A039076016401A64239D38E
:10886000361B1A2201230120311C5B0076000029EF
:1088700001DBB44201D8361B0343013A002AF3DC82
:10888000741EA641341C1C43039A7F32002A27DD44
:10889000630704D00F232340042B00D004342701A6
:1088A00003D52B4B039A1C408032FE2A0BDD01239B
:1088B00061460B40FF220026AAE706437602760AAD
:1088C0004346FF22A4E7A40101236746660AD2B209
:1088D0003B409DE7039F1B22013F03970023C2E714
:1088E0007E23039F5B42DB1B1B2B07DD01236146BD
:1088F0000B40002200268BE7D446C5E7221CDA4055
:10890000039B9E339C40231C5C1EA34113435A07C8
:1089100004D00F221A40042A00D004335F0105D589
:10892000012361460B400122002671E79E01624649
:1089300001231340760A00226AE78026F6032643C5
:108940007602760A5346FF2262E7C04610FA00001C
:10895000FFFFFFF74A02430270B55C0A550A430065
:108960004A001B0EC60F120EC90FFF2B05D0FF2A9F
:1089700008D0012093420BD070BD0120002CFBD108
:10898000FF2AF6D10120002DF6D101209342F3D128
:10899000AC42F1D18E4205D0002BEDD1201C441EFB
:1089A000A041E9E70020E7E74A024302F0B55C0A8C
:1089B000550A43004A001B0EC60F120EC90FFF2BAB
:1089C00031D0FF2A34D0002B16D16042604184465A
:1089D000002A14D0002820D18E4217D1934215DCF2
:1089E00004DBAC4212D80020AC4212D2704270417B
:1089F0004042012318430CE0002AEDD194466F4217
:108A00006F416046002805D1002FE5D07042012358
:108A10001843F0BD0020002FFBD14842484140429E
:108A200001231843F5E7002CCBD002204042F0E7A9
:108A3000002DC8D0F9E7C0464A024302F0B55C0AEF
:108A4000550A43004A001B0EC60F120EC90FFF2B1A
:108A500027D0FF2A29D0002B10D0002A15D1944608
:108A60006F426F416046002815D00020002F04D1CE
:108A700048424841404201231843F0BD60426041F2
:108A80008446002AECD00028F2D18E4211D07042E8
:108A900001231843F1E7002FF7D070420123184358
:108AA000EBE70220002CE8D1D3E70220002DE4D12F
:108AB000D1E79342EBDC04DBAC42E8D80020AC42C7
:108AC000DBD270427041404201231843D5E7C046D3
:108AD000F0B55F4656464D464446F0B44402460063
:108AE00083B00F1C640A360EC50F002E41D0FF2E36
:108AF00022D080231B0400201C43E4007F3E8246DA
:108B00008046391C4B007F02C90F7F0A1B0E8B4623
:108B10003BD0FF2B34D0802212041743FF007F3B51
:108B200000215A466A40019252460A430F2A63D8EE
:108B30007A48920082589746002C3FD1082202239F
:108B400092469846DDE70195404602282AD1019ACF
:108B500001251540FF2300246402DB05600AED07B0
:108B60001843284303B03CBC90469946A246AB4606
:108B7000F0BD002C27D10420012282469046C0E798
:108B8000391C4A1E91410231CBE70121002FC8D088
:108B9000381C02F06BF9431F9F4076235B421B1A7F
:108BA0000021BEE7032800D1AEE001284FD1019893
:108BB00042461040C5B200230024CDE70C23032019
:108BC0009A4680469DE7201C02F050F97626431F06
:108BD0009C4076420023361A9A46984691E78024B4
:108BE0000025E403FF23B7E75B463C1C019388465E
:108BF000AAE73C1C8846A7E7250C24043A0C240C61
:108C00003F04F6183F0C211C231C794353436F4348
:108C10005543FB180A0C9B18B1469F4202D980228B
:108C20005202AD1809041A04090C521894011B0CC5
:108C3000611E8C41920EED181443AD012C432301AB
:108C400005D5012263080120144081441C434B4692
:108C50007F33002B2DDD600704D00F222240042A31
:108C600000D00434220103D52D4B1C404B468033E9
:108C7000FE2B17DD019B01251D400024FF236BE720
:108C80008020C003044208D0074206D1041C3C43A4
:108C90006402640A5D46FF235EE704436402640ADB
:108CA000FF2359E70198A4010125640ADBB20540BE
:108CB00052E77E235B424A469B1A1B2B05DD019B34
:108CC00001251D400024002346E7221CDA404B46C4
:108CD0009E339C40231C5C1EA3411343580704D0C1
:108CE0000F221A40042A00D004335A0105D5019BF3
:108CF00001251D40002401232EE701989C01012538
:108D0000640A0540002327E78027FF03019B3C43BB
:108D1000640201251D40640AFF231DE750FA00008C
:108D2000FFFFFFF7F8B5C20F430244004D024800B1
:108D3000240E161C9B09000EC90FAD09FF2800D197
:108D40007EE0012779408A4258D0221A002A00DCAE
:108D500089E000281BD1002D00D075E0580704D011
:108D60000F221A40042A00D00433590138D50134A7
:108D7000FF2C00D183E09B0101225B0AE0B232406C
:108D80005B02C405580AD20720431043F8BDFF2CEC
:108D9000E4D08021C9040D431B2A00DD2DE1291CEC
:108DA0002020D140821A95406A1E95410D435B1BDD
:108DB0005801D3D59B019F09381C02F057F8421F78
:108DC0009740944260DC141B1F231B1B3A1C9F40DE
:108DD000611C3B1CCA405F1EBB4113430024BDE71E
:108DE0000122DB08E0B23240FF2C04D1002B7ED000
:108DF0008021C9030B435B025B0AC1E7211A0029EA
:108E000046DD002826D0FF2CA8D08020C0040543D2
:108E10001B2900DDEFE0281C2027C840791A8D406F
:108E2000691E8D4105435B19590197D50134FF2C0B
:108E30005CD0734901221A400B405B0813438DE755
:108E4000002D00D07FE77CE7013A002AAFD0FF2C4D
:108E5000A2D183E7002D00D180E701390029E2D0BB
:108E6000FF2CD5D17AE7002A1ED1621CD2B2012A8A
:108E70004EDD5F1B7A0126D5EF1A0E1C9CE70122FE
:108E80003240FF2000237BE75D4BA41A3B4065E79F
:108E9000002946D1611CC8B201282ADDFF2925D04E
:108EA000EB185B080C1C59E7002C13D0FF2818D0D6
:108EB0008024E404524223431B2A4DDD0123EB1A94
:108EC000041C0E1C74E7002F00D075E70022002060
:108ED000002390E7002B3BD0D243002AEFD0FF289D
:108EE000EAD12B1CFF240E1C38E70022FF200023B0
:108EF00046E7002C5AD1002B77D0002D00D12DE76A
:108F00005B19580100D429E73D4A0124134025E7A5
:108F1000002C15D1002B2FD1002DD7D02B1C0E1CCF
:108F20001CE7002C21D1002B53D0C943002904D0C9
:108F3000FF284BD01B294FDD01235B19041C73E76D
:108F4000002B22D1002DD0D02B1C0E1CFF2405E7B6
:108F50002B1C041C0E1C01E71C1C2026D440B21A3A
:108F600093405A1E93412343A9E7FF282ED0802423
:108F7000E40449422343DDE7002D00D1EEE65A1B0D
:108F8000500134D5EB1A0E1CE8E6FF24002D00D169
:108F9000E4E68022DB08D203134204D0ED08154238
:108FA00001D12B1C0E1CDB00FF24D7E6002B0DD0BB
:108FB000FF24002D00D1D1E68022DB08D20313422A
:108FC000F1D0ED081542EED12B1CECE72B1CFF2451
:108FD000C4E62B1C041CC1E61C1C2027CC40791ABB
:108FE0008B40591E8B412343A7E72B1CB6E6131E6B
:108FF00000D0B3E66AE7012515E70125D7E6C046AC
:10900000FFFFFFFB4302590A4300C20F1B0E002063
:109010007E2B0DDD9D2B0CDC802000040143952B65
:109020000ADC9620C31AD9404842002A00D1081C05
:109030007047034BD018FBE7963B9940F4E7C046D6
:10904000FFFFFF7F10B5041E33D001F00FFF9E23FA
:109050001B1A962B09DC083884406402640ADBB2D0
:109060006402DB05600A184310BD992B0ADD052256
:10907000121A211CD1400A1C011C1B318C40611E9C
:109080008C411443052801DD421F9440144A2240BC
:10909000610704D00F210C40042C00D00432510190
:1090A0000AD59F23181AFF2816D09401640AC3B268
:1090B000D6E700230024D3E7D208FF2B03D05402C5
:1090C000640ADBB2CCE7002A06D08024E403144310
:1090D0006402640AFF23C3E7FF230024C0E7C046FD
:1090E000FFFFFFFBF8B55F46564644464D46F0B4D9
:1090F0000C034D00CE0F610A440F2143C400180336
:1091000080465800400D8246D80F84464046400AAB
:10911000530F0343D0006D0D371C834652466645FE
:1091200000D19DE0AF1A002F00DC03E1002A38D106
:10913000184300D0E4E0630709D00F232340042B39
:1091400005D0231DA342A441644209191C1C080236
:1091500000D478E0CE4B6A1C9A4200D105E1CD4B99
:10916000E408194048075205490204430B0B520D0D
:10917000371C002000211B03201C1C0B0B0D1B05A2
:10918000C54D2343520552081D4015436D006D081F
:10919000FF07291C39433CBC90469946A246AB4682
:1091A000F8BDBB488542C6D0802000040343382F59
:1091B00000DDECE01F2F00DD20E12020C01B1A1C89
:1091C000814682405846F8400243944658464A46F3
:1091D0009040421E9041FB40624602431F1CA21A6F
:1091E0009442A4416442C91B091B141C0B02A2D562
:1091F00049024F0A002F00D1C4E0381C01F036FEAE
:10920000021C083A1F2A00DDB7E02821091A201C99
:109210009740C84007439440954200DDA9E0551BA4
:10922000691C1F2900DDD8E01F22551B3B1C221C96
:10923000AB40CA40AC40651EAC411343CF401C4319
:10924000391C002577E74807E4086A05C908520D6C
:10925000371C04438E4B9D4248D009030B0B88E713
:10926000AA1A9446002A00DC98E05046002853D001
:109270008748854200D15EE78020000403436246B0
:10928000382A00DDFDE01F2A00DD4BE12022604688
:10929000101A1A1C82408246914658466246D040B7
:1092A0004A4602439046584652469040421E9041DC
:1092B000424602436046C3401219A242A44164429E
:1092C00059180919141C080200D434E7704B0135F1
:1092D0009D4200D124E16F4B6008194001232340D7
:1092E0001C1C0443CB071C43490824E70B1C2343E5
:1092F00000D1C7E180231B030B431B031B0B38E783
:10930000013F002F64D15846221A9442A44164427E
:10931000C91A091B141C69E75846184300D10AE70B
:109320000122524294446046002800D0C5E05846CD
:109330000219C2E7002F72D1681C4005400D0128B8
:1093400000DCDEE05A46A21A9442BF41C81A7F42AE
:10935000C71B380200D488E05A46141BA34592412B
:10936000591A52428F1A664644E7371C00230024DC
:10937000FFE64849AD1A3940DDE6271C283887400A
:10938000002449E7201C01F071FD203038E75A46DF
:109390001A43531E9A41D2B2002720E7002A00D078
:1093A000DDE0681C4205520D012A00DC8EE0384DDC
:1093B000A84200D1B3E05D462A19A242A44164420A
:1093C00059180919CC07520814434908051CB2E67C
:1093D0002F48854200D0EAE6ADE62B1C1F3B3A1C25
:1093E000DA40131C20296DD03F22551BAF403C436F
:1093F000601E84411C43002100259CE6381C203857
:109400001A1CC240101C202F5ED04022D71BBB402C
:109410005A461A43531E9A4102430027DFE6002DA5
:109420003CD01B4DAA4500D194E080252D047F42FD
:109430002943382F00DDADE01F2F00DD2CE1202572
:10944000ED1B081C261CA840FE40AC400643651ED0
:10945000AC413443F9405D462C1BA34592415B1A55
:109460005242991A55466646C0E6131C3B43141CEB
:10947000002B00D0BEE6002700220025002100249A
:10948000E8E65A461A43531E9A41D2B2002313E724
:10949000FF070000FFFF7FFFFFFF0F800D1C25432C
:1094A00058D0FF43002F51D1041BA3459241591AB4
:1094B0005242891A5546664698E69648854200D03B
:1094C000DDE638E6002792E70023A1E7081C2043E9
:1094D000002D00D0C0E0002800D1FBE05846184322
:1094E00000D128E658460219A242A4416442591804
:1094F0000919141C0A0200D41DE6874B01251940E6
:1095000019E6081C2043002D39D100286DD1594699
:10951000194300D1BDE0191C5C4666460BE6051CEC
:109520002A1CABE7604620381A1CC24060469146B0
:10953000202800D1ABE04022121A93405A461A4329
:10954000531E9A414B461A430023B5E6714DAA4576
:1095500000D06EE7191C5C4655466646EBE5002DCB
:109560001ED10D1C254373D0D543002D6DD15C4415
:109570005C4592415918524289185546A3E6002885
:1095800049D15946194300D196E0191C5C466646FC
:10959000604DD0E50C43611E8C41E4B200215AE7D6
:1095A0005C4DAA4554D05542802210040143382D09
:1095B00000DD85E01F2D00DD95E02022501B0A1CF8
:1095C00084468240201CE840024390466246944014
:1095D000601E844142461443E9405C445C4592412C
:1095E000CB185242991855466DE65846184300D19B
:1095F000A1E55846271ABC429241C81A5242801A25
:1096000002026AD55846041BA3459241591A524298
:10961000891A66468FE55846184336D04807E4084D
:1096200004438020C9080003014208D0DD08054238
:1096300005D15946CA085C071443291C6646630FC6
:10964000C9001943E400334D75E5324A9245AED165
:10965000191C5C4655466EE5002837D0584618431D
:1096600013D080254807E408C9082D030443294284
:10967000E5D0D8082842E2D15D46EA085C071443E9
:10968000011CDCE70023002473E5224D53E5002391
:1096900054E700270022F1E63D1C203D0A1CEA4069
:1096A000151C202F31D04026F71BB9400C43611EFA
:1096B0008C412C430021CEE6164A0027151CDDE61E
:1096C0000C43611E8C41E4B2002186E7191C5C4604
:1096D000104D30E5191C5C462DE5031C3B43D8D0EA
:1096E000011C3C1C27E52020404240190A1CC240B6
:1096F0009046202D0BD04020451BA9400C43611EF5
:109700008C4145462C43002167E70021CEE700212C
:10971000F4E7C046FF070000FFFF7FFFF0B55646A5
:1097200044465F464D46F0B41F1C0B031B0B984686
:109730004B0087B0041C81465B0DC80F161C9A466F
:109740000090002B51D06A4B9A4531D0802241467F
:1097500052030A43630FD2001A43664B904600251A
:10976000E20091469A44002402953B031B0B9B4662
:10977000FD0F7B00311C5B0D019560D05C4A93426C
:1097800054D08021584649030143720FC900114348
:10979000584A8B469B18F1000020009A04436A4007
:1097A00003920F2C00D9ADE0534EA4003459A746C4
:1097B000404604436ED1002102250824884689468C
:1097C0000295D2E7009C0298C346494601940228BC
:1097D00064D0032800D1ABE2012800D038E2019A1E
:1097E000002402400025A14660E0434623434AD0BE
:1097F0004046002800D1C0E101F038FB031E272BB2
:1098000000DDB3E128210D1A211C083B4246E94046
:109810009A400D1C1543221C9A40A8469146374B8E
:1098200000251B1A9A46002402959EE75A461643C5
:109830000320002EB1D1B34600210220ADE75A46E5
:1098400032431BD05B46002B00D18AE1584601F021
:109850000DFB272800DD7DE12822171A011C321C90
:1098600008395B46FA408B40171C1F43331C8B4062
:10987000BB46191C214B1B1A00208EE70027BB4654
:109880000021012089E7002001250424804681462B
:1098900002956AE703250C24029566E7019C039470
:1098A000039D01222A400024114DA14600200021E1
:1098B0002403260B0C0D2405114B34432D052340A6
:1098C0002B435B005B08D207191C4846114307B0C5
:1098D0003CBC90469946A246AB46F0BD002280248F
:1098E00024039146024DE1E700240025A146DDE76F
:1098F000FF07000001FCFFFF90FA00000DFCFFFFD6
:10990000FFFF0F805546ED1A0495D84500D953E165
:1099100000D14EE1049C0025013C4E46049447468C
:10992000A946584603020C0E1C430902250C2304C9
:109930001B0C0091381C291C0193FEF721FC019996
:1099400083464143381C8A46291CFEF75DFC330CD4
:10995000090419438A450CD95B460919013B8C421D
:1099600000D947E18A4500D844E10222524293449B
:1099700009195346CB1A181C291C9846FEF700FCFF
:10998000071C0198291C784382464046FEF73CFCA0
:1099900036040B04360C33439A4509D91B197A1E39
:1099A0009C4200D924E19A4500D821E1023F1B19CD
:1099B0005E4632041743380CBB46009E009F51465A
:1099C0003F0C32045B1A5946BA46120C0F043F0C86
:1099D000904651467A434F43414641435646704371
:1099E000CF19160CBE19B14202D980277F02C019C7
:1099F000310C12043604120C4018B618834200D2FF
:109A0000C4E000D1BEE0191A4846861BB145BF41EB
:109A10007F42CF1BA74200D113E1291C381CFEF75F
:109A2000AFFB019902904143381C8946291CFEF77F
:109A3000EBFB330C0904194389450CD9029B091926
:109A4000013B8C4200D9FFE0894500D8FCE0029F31
:109A50000919023F02974F46CF1B381C291C059756
:109A6000FEF78EFB071C0198291C78438146059858
:109A7000FEF7CAFB36040904360C0E43B14509D97A
:109A800036197B1EB44200D9E0E0B14500D8DDE0D4
:109A9000023F3619029D4946761A290439430B04C0
:109AA00057460A0C1B0C40464546584355437B43DA
:109AB0007A43EB18070CDB199D4202D980256D0211
:109AC00052191D0C00041B04000C52191B1896425D
:109AD00035D300D1FCE001231943049E994FF519B9
